{
  "_format": "hh-sol-artifact-1",
  "contractName": "ProduceTracker",
  "sourceName": "contracts/ProduceTracker.sol",
  "abi": [
    {
      "anonymous": false,
      "inputs": [
        {
          "indexed": true,
          "internalType": "uint256",
          "name": "produceId",
          "type": "uint256"
        },
        {
          "indexed": true,
          "internalType": "address",
          "name": "by",
          "type": "address"
        },
        {
          "indexed": false,
          "internalType": "string",
          "name": "hash",
          "type": "string"
        }
      ],
      "name": "EventAdded",
      "type": "event"
    },
    {
      "anonymous": false,
      "inputs": [
        {
          "indexed": true,
          "internalType": "uint256",
          "name": "produceId",
          "type": "uint256"
        },
        {
          "indexed": true,
          "internalType": "address",
          "name": "participant",
          "type": "address"
        }
      ],
      "name": "ParticipantAuthorized",
      "type": "event"
    },
    {
      "anonymous": false,
      "inputs": [
        {
          "indexed": true,
          "internalType": "uint256",
          "name": "produceId",
          "type": "uint256"
        },
        {
          "indexed": true,
          "internalType": "address",
          "name": "participant",
          "type": "address"
        }
      ],
      "name": "ParticipantRevoked",
      "type": "event"
    },
    {
      "anonymous": false,
      "inputs": [
        {
          "indexed": true,
          "internalType": "uint256",
          "name": "produceId",
          "type": "uint256"
        },
        {
          "indexed": true,
          "internalType": "address",
          "name": "farmer",
          "type": "address"
        },
        {
          "indexed": false,
          "internalType": "string",
          "name": "initialHash",
          "type": "string"
        }
      ],
      "name": "ProduceRegistered",
      "type": "event"
    },
    {
      "inputs": [
        {
          "internalType": "uint256",
          "name": "produceId",
          "type": "uint256"
        },
        {
          "internalType": "string",
          "name": "hash",
          "type": "string"
        }
      ],
      "name": "addEvent",
      "outputs": [],
      "stateMutability": "nonpayable",
      "type": "function"
    },
    {
      "inputs": [
        {
          "internalType": "uint256",
          "name": "produceId",
          "type": "uint256"
        },
        {
          "internalType": "address",
          "name": "participant",
          "type": "address"
        }
      ],
      "name": "authorizeParticipant",
      "outputs": [],
      "stateMutability": "nonpayable",
      "type": "function"
    },
    {
      "inputs": [
        {
          "internalType": "uint256",
          "name": "produceId",
          "type": "uint256"
        }
      ],
      "name": "getDescription",
      "outputs": [
        {
          "internalType": "string",
          "name": "",
          "type": "string"
        }
      ],
      "stateMutability": "view",
      "type": "function"
    },
    {
      "inputs": [
        {
          "internalType": "uint256",
          "name": "produceId",
          "type": "uint256"
        }
      ],
      "name": "getEventCount",
      "outputs": [
        {
          "internalType": "uint256",
          "name": "",
          "type": "uint256"
        }
      ],
      "stateMutability": "view",
      "type": "function"
    },
    {
      "inputs": [
        {
          "internalType": "uint256",
          "name": "produceId",
          "type": "uint256"
        }
      ],
      "name": "getOwner",
      "outputs": [
        {
          "internalType": "address",
          "name": "",
          "type": "address"
        }
      ],
      "stateMutability": "view",
      "type": "function"
    },
    {
      "inputs": [
        {
          "internalType": "uint256",
          "name": "produceId",
          "type": "uint256"
        },
        {
          "internalType": "address",
          "name": "participant",
          "type": "address"
        }
      ],
      "name": "isAuthorized",
      "outputs": [
        {
          "internalType": "bool",
          "name": "",
          "type": "bool"
        }
      ],
      "stateMutability": "view",
      "type": "function"
    },
    {
      "inputs": [
        {
          "internalType": "uint256",
          "name": "",
          "type": "uint256"
        },
        {
          "internalType": "address",
          "name": "",
          "type": "address"
        }
      ],
      "name": "participants",
      "outputs": [
        {
          "internalType": "bool",
          "name": "",
          "type": "bool"
        }
      ],
      "stateMutability": "view",
      "type": "function"
    },
    {
      "inputs": [
        {
          "internalType": "uint256",
          "name": "",
          "type": "uint256"
        }
      ],
      "name": "produces",
      "outputs": [
        {
          "internalType": "address",
          "name": "owner",
          "type": "address"
        },
        {
          "internalType": "string",
          "name": "description",
          "type": "string"
        },
        {
          "internalType": "uint256",
          "name": "eventCount",
          "type": "uint256"
        },
        {
          "internalType": "bool",
          "name": "exists",
          "type": "bool"
        }
      ],
      "stateMutability": "view",
      "type": "function"
    },
    {
      "inputs": [
        {
          "internalType": "uint256",
          "name": "produceId",
          "type": "uint256"
        },
        {
          "internalType": "string",
          "name": "description",
          "type": "string"
        },
        {
          "internalType": "string",
          "name": "initialHash",
          "type": "string"
        }
      ],
      "name": "registerProduce",
      "outputs": [],
      "stateMutability": "nonpayable",
      "type": "function"
    },
    {
      "inputs": [
        {
          "internalType": "uint256",
          "name": "produceId",
          "type": "uint256"
        },
        {
          "internalType": "address",
          "name": "participant",
          "type": "address"
        }
      ],
      "name": "revokeParticipant",
      "outputs": [],
      "stateMutability": "nonpayable",
      "type": "function"
    }
  ],
  "bytecode": "0x608060405234801561001057600080fd5b50611bb6806100206000396000f3fe608060405234801561001057600080fd5b506004361061009e5760003560e01c80636e8275b8116100665780636e8275b814610196578063c41a360a146101b2578063f748324c146101e2578063fc751902146101fe578063ffdd108b1461021a5761009e565b806302e060c6146100a35780631c2eaa9c146100d35780634925ec551461010357806356cd830614610133578063609c6d7f14610166575b600080fd5b6100bd60048036038101906100b89190611101565b610236565b6040516100ca919061115c565b60405180910390f35b6100ed60048036038101906100e89190611177565b610265565b6040516100fa91906111b3565b60405180910390f35b61011d60048036038101906101189190611177565b6102e6565b60405161012a919061125e565b60405180910390f35b61014d60048036038101906101489190611177565b6103ef565b60405161015d949392919061128f565b60405180910390f35b610180600480360381019061017b9190611101565b6104d4565b60405161018d919061115c565b60405180910390f35b6101b060048036038101906101ab9190611101565b6105de565b005b6101cc60048036038101906101c79190611177565b610833565b6040516101d991906112db565b60405180910390f35b6101fc60048036038101906101f79190611101565b6108d4565b005b6102186004803603810190610213919061135b565b610afa565b005b610234600480360381019061022f91906113f0565b610d67565b005b60016020528160005260406000206020528060005260406000206000915091509054906101000a900460ff1681565b600080600083815260200190815260200160002060030160009054906101000a900460ff166102c9576040517f08c379a00000000000000000000000000000000000000000000000000000000081526004016102c09061149c565b60405180910390fd5b600080838152602001908152602001600020600201549050919050565b606060008083815260200190815260200160002060030160009054906101000a900460ff1661034a576040517f08c379a00000000000000000000000000000000000000000000000000000000081526004016103419061149c565b60405180910390fd5b600080838152602001908152602001600020600101805461036a906114eb565b80601f0160208091040260200160405190810160405280929190818152602001828054610396906114eb565b80156103e35780601f106103b8576101008083540402835291602001916103e3565b820191906000526020600020905b8154815290600101906020018083116103c657829003601f168201915b50505050509050919050565b60006020528060005260406000206000915090508060000160009054906101000a900473ffffffffffffffffffffffffffffffffffffffff1690806001018054610438906114eb565b80601f0160208091040260200160405190810160405280929190818152602001828054610464906114eb565b80156104b15780601f10610486576101008083540402835291602001916104b1565b820191906000526020600020905b81548152906001019060200180831161049457829003601f168201915b5050505050908060020154908060030160009054906101000a900460ff16905084565b600080600084815260200190815260200160002060030160009054906101000a900460ff1661050657600090506105d8565b8173ffffffffffffffffffffffffffffffffffffffff1660008085815260200190815260200160002060000160009054906101000a900473ffffffffffffffffffffffffffffffffffffffff1673ffffffffffffffffffffffffffffffffffffffff160361057757600190506105d8565b6001600084815260200190815260200160002060008373ffffffffffffffffffffffffffffffffffffffff1673ffffffffffffffffffffffffffffffffffffffff16815260200190815260200160002060009054906101000a900460ff1690505b92915050565b8160008082815260200190815260200160002060030160009054906101000a900460ff16610641576040517f08c379a00000000000000000000000000000000000000000000000000000000081526004016106389061149c565b60405180910390fd5b3373ffffffffffffffffffffffffffffffffffffffff1660008083815260200190815260200160002060000160009054906101000a900473ffffffffffffffffffffffffffffffffffffffff1673ffffffffffffffffffffffffffffffffffffffff16146106e4576040517f08c379a00000000000000000000000000000000000000000000000000000000081526004016106db90611568565b60405180910390fd5b6001600084815260200190815260200160002060008373ffffffffffffffffffffffffffffffffffffffff1673ffffffffffffffffffffffffffffffffffffffff16815260200190815260200160002060009054906101000a900460ff16610781576040517f08c379a0000000000000000000000000000000000000000000000000000000008152600401610778906115d4565b60405180910390fd5b60006001600085815260200190815260200160002060008473ffffffffffffffffffffffffffffffffffffffff1673ffffffffffffffffffffffffffffffffffffffff16815260200190815260200160002060006101000a81548160ff0219169083151502179055508173ffffffffffffffffffffffffffffffffffffffff16837f5b6d6edf34f000b4c2453aea9ec3e406cfc0f392bf67e378b75542f2127e268c60405160405180910390a3505050565b600080600083815260200190815260200160002060030160009054906101000a900460ff16610897576040517f08c379a000000000000000000000000000000000000000000000000000000000815260040161088e9061149c565b60405180910390fd5b60008083815260200190815260200160002060000160009054906101000a900473ffffffffffffffffffffffffffffffffffffffff169050919050565b8160008082815260200190815260200160002060030160009054906101000a900460ff16610937576040517f08c379a000000000000000000000000000000000000000000000000000000000815260040161092e9061149c565b60405180910390fd5b3373ffffffffffffffffffffffffffffffffffffffff1660008083815260200190815260200160002060000160009054906101000a900473ffffffffffffffffffffffffffffffffffffffff1673ffffffffffffffffffffffffffffffffffffffff16146109da576040517f08c379a00000000000000000000000000000000000000000000000000000000081526004016109d190611568565b60405180910390fd5b600073ffffffffffffffffffffffffffffffffffffffff168273ffffffffffffffffffffffffffffffffffffffff1603610a49576040517f08c379a0000000000000000000000000000000000000000000000000000000008152600401610a4090611640565b60405180910390fd5b600180600085815260200190815260200160002060008473ffffffffffffffffffffffffffffffffffffffff1673ffffffffffffffffffffffffffffffffffffffff16815260200190815260200160002060006101000a81548160ff0219169083151502179055508173ffffffffffffffffffffffffffffffffffffffff16837ffb494f53d22271be1cf5563fbcd743f61e52896019b76db877170f99d6ce86bc60405160405180910390a3505050565b60008086815260200190815260200160002060030160009054906101000a900460ff1615610b5d576040517f08c379a0000000000000000000000000000000000000000000000000000000008152600401610b54906116ac565b60405180910390fd5b60008282905011610ba3576040517f08c379a0000000000000000000000000000000000000000000000000000000008152600401610b9a90611718565b60405180910390fd5b60405180608001604052803373ffffffffffffffffffffffffffffffffffffffff16815260200185858080601f016020809104026020016040519081016040528093929190818152602001838380828437600081840152601f19601f820116905080830192505050505050508152602001600181526020016001151581525060008087815260200190815260200160002060008201518160000160006101000a81548173ffffffffffffffffffffffffffffffffffffffff021916908373ffffffffffffffffffffffffffffffffffffffff1602179055506020820151816001019081610c909190611913565b506040820151816002015560608201518160030160006101000a81548160ff0219169083151502179055509050503373ffffffffffffffffffffffffffffffffffffffff16857f649a03201560fb510afac47dad98a1b09e8bc8bc6692016292a951df79334cc88484604051610d07929190611a21565b60405180910390a33373ffffffffffffffffffffffffffffffffffffffff16857fbbb87fefecd82902af03e5ddbaf086b9477e3bdb2be5568f5b6ee54c0cecfe5e8484604051610d58929190611a21565b60405180910390a35050505050565b8260008082815260200190815260200160002060030160009054906101000a900460ff16610dca576040517f08c379a0000000000000000000000000000000000000000000000000000000008152600401610dc19061149c565b60405180910390fd5b60008082815260200190815260200160002060000160009054906101000a900473ffffffffffffffffffffffffffffffffffffffff1673ffffffffffffffffffffffffffffffffffffffff163373ffffffffffffffffffffffffffffffffffffffff1603610efb5760008383905011610e78576040517f08c379a0000000000000000000000000000000000000000000000000000000008152600401610e6f90611a91565b60405180910390fd5b60016000808681526020019081526020016000206002016000828254610e9e9190611ae0565b925050819055503373ffffffffffffffffffffffffffffffffffffffff16847fbbb87fefecd82902af03e5ddbaf086b9477e3bdb2be5568f5b6ee54c0cecfe5e8585604051610eee929190611a21565b60405180910390a361105d565b6001600082815260200190815260200160002060003373ffffffffffffffffffffffffffffffffffffffff1673ffffffffffffffffffffffffffffffffffffffff16815260200190815260200160002060009054906101000a900460ff16610f98576040517f08c379a0000000000000000000000000000000000000000000000000000000008152600401610f8f90611b60565b60405180910390fd5b60008383905011610fde576040517f08c379a0000000000000000000000000000000000000000000000000000000008152600401610fd590611a91565b60405180910390fd5b600160008086815260200190815260200160002060020160008282546110049190611ae0565b925050819055503373ffffffffffffffffffffffffffffffffffffffff16847fbbb87fefecd82902af03e5ddbaf086b9477e3bdb2be5568f5b6ee54c0cecfe5e8585604051611054929190611a21565b60405180910390a35b50505050565b600080fd5b600080fd5b6000819050919050565b6110808161106d565b811461108b57600080fd5b50565b60008135905061109d81611077565b92915050565b600073ffffffffffffffffffffffffffffffffffffffff82169050919050565b60006110ce826110a3565b9050919050565b6110de816110c3565b81146110e957600080fd5b50565b6000813590506110fb816110d5565b92915050565b6000806040838503121561111857611117611063565b5b60006111268582860161108e565b9250506020611137858286016110ec565b9150509250929050565b60008115159050919050565b61115681611141565b82525050565b6000602082019050611171600083018461114d565b92915050565b60006020828403121561118d5761118c611063565b5b600061119b8482850161108e565b91505092915050565b6111ad8161106d565b82525050565b60006020820190506111c860008301846111a4565b92915050565b600081519050919050565b600082825260208201905092915050565b60005b838110156112085780820151818401526020810190506111ed565b60008484015250505050565b6000601f19601f8301169050919050565b6000611230826111ce565b61123a81856111d9565b935061124a8185602086016111ea565b61125381611214565b840191505092915050565b600060208201905081810360008301526112788184611225565b905092915050565b611289816110c3565b82525050565b60006080820190506112a46000830187611280565b81810360208301526112b68186611225565b90506112c560408301856111a4565b6112d2606083018461114d565b95945050505050565b60006020820190506112f06000830184611280565b92915050565b600080fd5b600080fd5b600080fd5b60008083601f84011261131b5761131a6112f6565b5b8235905067ffffffffffffffff811115611338576113376112fb565b5b60208301915083600182028301111561135457611353611300565b5b9250929050565b60008060008060006060868803121561137757611376611063565b5b60006113858882890161108e565b955050602086013567ffffffffffffffff8111156113a6576113a5611068565b5b6113b288828901611305565b9450945050604086013567ffffffffffffffff8111156113d5576113d4611068565b5b6113e188828901611305565b92509250509295509295909350565b60008060006040848603121561140957611408611063565b5b60006114178682870161108e565b935050602084013567ffffffffffffffff81111561143857611437611068565b5b61144486828701611305565b92509250509250925092565b7f50726f6475636520646f6573206e6f7420657869737400000000000000000000600082015250565b60006114866016836111d9565b915061149182611450565b602082019050919050565b600060208201905081810360008301526114b581611479565b9050919050565b7f4e487b7100000000000000000000000000000000000000000000000000000000600052602260045260246000fd5b6000600282049050600182168061150357607f821691505b602082108103611516576115156114bc565b5b50919050565b7f4f6e6c79206f776e657220616c6c6f7765640000000000000000000000000000600082015250565b60006115526012836111d9565b915061155d8261151c565b602082019050919050565b6000602082019050818103600083015261158181611545565b9050919050565b7f5061727469636970616e74206e6f7420617574686f72697a6564000000000000600082015250565b60006115be601a836111d9565b91506115c982611588565b602082019050919050565b600060208201905081810360008301526115ed816115b1565b9050919050565b7f496e76616c6964207061727469636970616e7400000000000000000000000000600082015250565b600061162a6013836111d9565b9150611635826115f4565b602082019050919050565b600060208201905081810360008301526116598161161d565b9050919050565b7f50726f6475636520616c72656164792072656769737465726564000000000000600082015250565b6000611696601a836111d9565b91506116a182611660565b602082019050919050565b600060208201905081810360008301526116c581611689565b9050919050565b7f496e697469616c20686173682072657175697265640000000000000000000000600082015250565b60006117026015836111d9565b915061170d826116cc565b602082019050919050565b60006020820190508181036000830152611731816116f5565b9050919050565b7f4e487b7100000000000000000000000000000000000000000000000000000000600052604160045260246000fd5b60008190508160005260206000209050919050565b60006020601f8301049050919050565b600082821b905092915050565b6000600883026117c97fffffffffffffffffffffffffffffffffffffffffffffffffffffffffffffffff8261178c565b6117d3868361178c565b95508019841693508086168417925050509392505050565b6000819050919050565b600061181061180b6118068461106d565b6117eb565b61106d565b9050919050565b6000819050919050565b61182a836117f5565b61183e61183682611817565b848454611799565b825550505050565b600090565b611853611846565b61185e818484611821565b505050565b5b818110156118825761187760008261184b565b600181019050611864565b5050565b601f8211156118c75761189881611767565b6118a18461177c565b810160208510156118b0578190505b6118c46118bc8561177c565b830182611863565b50505b505050565b600082821c905092915050565b60006118ea600019846008026118cc565b1980831691505092915050565b600061190383836118d9565b9150826002028217905092915050565b61191c826111ce565b67ffffffffffffffff81111561193557611934611738565b5b61193f82546114eb565b61194a828285611886565b600060209050601f83116001811461197d576000841561196b578287015190505b61197585826118f7565b8655506119dd565b601f19841661198b86611767565b60005b828110156119b35784890151825560018201915060208501945060208101905061198e565b868310156119d057848901516119cc601f8916826118d9565b8355505b6001600288020188555050505b505050505050565b82818337600083830152505050565b6000611a0083856111d9565b9350611a0d8385846119e5565b611a1683611214565b840190509392505050565b60006020820190508181036000830152611a3c8184866119f4565b90509392505050565b7f4861736820726571756972656400000000000000000000000000000000000000600082015250565b6000611a7b600d836111d9565b9150611a8682611a45565b602082019050919050565b60006020820190508181036000830152611aaa81611a6e565b9050919050565b7f4e487b7100000000000000000000000000000000000000000000000000000000600052601160045260246000fd5b6000611aeb8261106d565b9150611af68361106d565b9250828201905080821115611b0e57611b0d611ab1565b5b92915050565b7f4e6f7420617574686f72697a656420746f20616464206576656e747300000000600082015250565b6000611b4a601c836111d9565b9150611b5582611b14565b602082019050919050565b60006020820190508181036000830152611b7981611b3d565b905091905056fea264697066735822122058e0156928ad189e4de681327f6c590e08738936baea292ad87d751e12a8f4d564736f6c63430008130033",
  "linkReferences": {},
  "deployedLinkReferences": {}
}